{
  "_format": "hh-sol-artifact-1",
  "contractName": "TDFToken",
  "sourceName": "contracts/TDFToken.sol",
  "abi": [
    {
      "inputs": [
        {
          "internalType": "address",
          "name": "spender",
          "type": "address"
        },
        {
          "internalType": "uint256",
          "name": "allowance",
          "type": "uint256"
        },
        {
          "internalType": "uint256",
          "name": "needed",
          "type": "uint256"
        }
      ],
      "name": "ERC20InsufficientAllowance",
      "type": "error"
    },
    {
      "inputs": [
        {
          "internalType": "address",
          "name": "sender",
          "type": "address"
        },
        {
          "internalType": "uint256",
          "name": "balance",
          "type": "uint256"
        },
        {
          "internalType": "uint256",
          "name": "needed",
          "type": "uint256"
        }
      ],
      "name": "ERC20InsufficientBalance",
      "type": "error"
    },
    {
      "inputs": [
        {
          "internalType": "address",
          "name": "approver",
          "type": "address"
        }
      ],
      "name": "ERC20InvalidApprover",
      "type": "error"
    },
    {
      "inputs": [
        {
          "internalType": "address",
          "name": "receiver",
          "type": "address"
        }
      ],
      "name": "ERC20InvalidReceiver",
      "type": "error"
    },
    {
      "inputs": [
        {
          "internalType": "address",
          "name": "sender",
          "type": "address"
        }
      ],
      "name": "ERC20InvalidSender",
      "type": "error"
    },
    {
      "inputs": [
        {
          "internalType": "address",
          "name": "spender",
          "type": "address"
        }
      ],
      "name": "ERC20InvalidSpender",
      "type": "error"
    },
    {
      "inputs": [],
      "name": "InvalidInitialization",
      "type": "error"
    },
    {
      "inputs": [],
      "name": "NotInitializing",
      "type": "error"
    },
    {
      "inputs": [
        {
          "internalType": "address",
          "name": "owner",
          "type": "address"
        }
      ],
      "name": "OwnableInvalidOwner",
      "type": "error"
    },
    {
      "inputs": [
        {
          "internalType": "address",
          "name": "account",
          "type": "address"
        }
      ],
      "name": "OwnableUnauthorizedAccount",
      "type": "error"
    },
    {
      "anonymous": false,
      "inputs": [
        {
          "indexed": true,
          "internalType": "address",
          "name": "owner",
          "type": "address"
        },
        {
          "indexed": true,
          "internalType": "address",
          "name": "spender",
          "type": "address"
        },
        {
          "indexed": false,
          "internalType": "uint256",
          "name": "value",
          "type": "uint256"
        }
      ],
      "name": "Approval",
      "type": "event"
    },
    {
      "anonymous": false,
      "inputs": [
        {
          "indexed": false,
          "internalType": "uint64",
          "name": "version",
          "type": "uint64"
        }
      ],
      "name": "Initialized",
      "type": "event"
    },
    {
      "anonymous": false,
      "inputs": [
        {
          "indexed": true,
          "internalType": "address",
          "name": "previousOwner",
          "type": "address"
        },
        {
          "indexed": true,
          "internalType": "address",
          "name": "newOwner",
          "type": "address"
        }
      ],
      "name": "OwnershipTransferStarted",
      "type": "event"
    },
    {
      "anonymous": false,
      "inputs": [
        {
          "indexed": true,
          "internalType": "address",
          "name": "previousOwner",
          "type": "address"
        },
        {
          "indexed": true,
          "internalType": "address",
          "name": "newOwner",
          "type": "address"
        }
      ],
      "name": "OwnershipTransferred",
      "type": "event"
    },
    {
      "anonymous": false,
      "inputs": [
        {
          "indexed": false,
          "internalType": "address",
          "name": "account",
          "type": "address"
        }
      ],
      "name": "Paused",
      "type": "event"
    },
    {
      "anonymous": false,
      "inputs": [
        {
          "indexed": true,
          "internalType": "address",
          "name": "from",
          "type": "address"
        },
        {
          "indexed": true,
          "internalType": "address",
          "name": "to",
          "type": "address"
        },
        {
          "indexed": false,
          "internalType": "uint256",
          "name": "value",
          "type": "uint256"
        }
      ],
      "name": "Transfer",
      "type": "event"
    },
    {
      "anonymous": false,
      "inputs": [
        {
          "indexed": false,
          "internalType": "address",
          "name": "account",
          "type": "address"
        }
      ],
      "name": "Unpaused",
      "type": "event"
    },
    {
      "inputs": [],
      "name": "acceptOwnership",
      "outputs": [],
      "stateMutability": "nonpayable",
      "type": "function"
    },
    {
      "inputs": [
        {
          "internalType": "address",
          "name": "owner",
          "type": "address"
        },
        {
          "internalType": "address",
          "name": "spender",
          "type": "address"
        }
      ],
      "name": "allowance",
      "outputs": [
        {
          "internalType": "uint256",
          "name": "",
          "type": "uint256"
        }
      ],
      "stateMutability": "view",
      "type": "function"
    },
    {
      "inputs": [
        {
          "internalType": "address",
          "name": "spender",
          "type": "address"
        },
        {
          "internalType": "uint256",
          "name": "value",
          "type": "uint256"
        }
      ],
      "name": "approve",
      "outputs": [
        {
          "internalType": "bool",
          "name": "",
          "type": "bool"
        }
      ],
      "stateMutability": "nonpayable",
      "type": "function"
    },
    {
      "inputs": [
        {
          "internalType": "address",
          "name": "account",
          "type": "address"
        }
      ],
      "name": "balanceOf",
      "outputs": [
        {
          "internalType": "uint256",
          "name": "",
          "type": "uint256"
        }
      ],
      "stateMutability": "view",
      "type": "function"
    },
    {
      "inputs": [
        {
          "internalType": "uint256",
          "name": "amount",
          "type": "uint256"
        }
      ],
      "name": "burn",
      "outputs": [],
      "stateMutability": "nonpayable",
      "type": "function"
    },
    {
      "inputs": [
        {
          "internalType": "address",
          "name": "account",
          "type": "address"
        },
        {
          "internalType": "uint256",
          "name": "amount",
          "type": "uint256"
        }
      ],
      "name": "burnFrom",
      "outputs": [],
      "stateMutability": "nonpayable",
      "type": "function"
    },
    {
      "inputs": [],
      "name": "decimals",
      "outputs": [
        {
          "internalType": "uint8",
          "name": "",
          "type": "uint8"
        }
      ],
      "stateMutability": "view",
      "type": "function"
    },
    {
      "inputs": [],
      "name": "getDAOContract",
      "outputs": [
        {
          "internalType": "address",
          "name": "",
          "type": "address"
        }
      ],
      "stateMutability": "view",
      "type": "function"
    },
    {
      "inputs": [
        {
          "internalType": "address",
          "name": "manager",
          "type": "address"
        }
      ],
      "name": "initialize",
      "outputs": [],
      "stateMutability": "nonpayable",
      "type": "function"
    },
    {
      "inputs": [
        {
          "internalType": "address",
          "name": "account",
          "type": "address"
        },
        {
          "internalType": "uint256",
          "name": "amount",
          "type": "uint256"
        }
      ],
      "name": "mint",
      "outputs": [],
      "stateMutability": "nonpayable",
      "type": "function"
    },
    {
      "inputs": [],
      "name": "name",
      "outputs": [
        {
          "internalType": "string",
          "name": "",
          "type": "string"
        }
      ],
      "stateMutability": "view",
      "type": "function"
    },
    {
      "inputs": [],
      "name": "owner",
      "outputs": [
        {
          "internalType": "address",
          "name": "",
          "type": "address"
        }
      ],
      "stateMutability": "view",
      "type": "function"
    },
    {
      "inputs": [],
      "name": "pause",
      "outputs": [],
      "stateMutability": "nonpayable",
      "type": "function"
    },
    {
      "inputs": [],
      "name": "paused",
      "outputs": [
        {
          "internalType": "bool",
          "name": "",
          "type": "bool"
        }
      ],
      "stateMutability": "view",
      "type": "function"
    },
    {
      "inputs": [],
      "name": "pendingOwner",
      "outputs": [
        {
          "internalType": "address",
          "name": "",
          "type": "address"
        }
      ],
      "stateMutability": "view",
      "type": "function"
    },
    {
      "inputs": [],
      "name": "renounceOwnership",
      "outputs": [],
      "stateMutability": "nonpayable",
      "type": "function"
    },
    {
      "inputs": [
        {
          "internalType": "address",
          "name": "manager",
          "type": "address"
        }
      ],
      "name": "setDAOContract",
      "outputs": [],
      "stateMutability": "nonpayable",
      "type": "function"
    },
    {
      "inputs": [],
      "name": "symbol",
      "outputs": [
        {
          "internalType": "string",
          "name": "",
          "type": "string"
        }
      ],
      "stateMutability": "view",
      "type": "function"
    },
    {
      "inputs": [],
      "name": "totalSupply",
      "outputs": [
        {
          "internalType": "uint256",
          "name": "",
          "type": "uint256"
        }
      ],
      "stateMutability": "view",
      "type": "function"
    },
    {
      "inputs": [
        {
          "internalType": "address",
          "name": "to",
          "type": "address"
        },
        {
          "internalType": "uint256",
          "name": "value",
          "type": "uint256"
        }
      ],
      "name": "transfer",
      "outputs": [
        {
          "internalType": "bool",
          "name": "",
          "type": "bool"
        }
      ],
      "stateMutability": "nonpayable",
      "type": "function"
    },
    {
      "inputs": [
        {
          "internalType": "address",
          "name": "from",
          "type": "address"
        },
        {
          "internalType": "address",
          "name": "to",
          "type": "address"
        },
        {
          "internalType": "uint256",
          "name": "value",
          "type": "uint256"
        }
      ],
      "name": "transferFrom",
      "outputs": [
        {
          "internalType": "bool",
          "name": "",
          "type": "bool"
        }
      ],
      "stateMutability": "nonpayable",
      "type": "function"
    },
    {
      "inputs": [
        {
          "internalType": "address",
          "name": "newOwner",
          "type": "address"
        }
      ],
      "name": "transferOwnership",
      "outputs": [],
      "stateMutability": "nonpayable",
      "type": "function"
    },
    {
      "inputs": [],
      "name": "unpause",
      "outputs": [],
      "stateMutability": "nonpayable",
      "type": "function"
    }
  ],
  "bytecode": "0x608060405234801561001057600080fd5b5061217e806100206000396000f3fe608060405234801561001057600080fd5b506004361061014d5760003560e01c806370a08231116100c357806395d89b411161007c57806395d89b411461032e578063a9059cbb1461034c578063c4d66de81461037c578063dd62ed3e14610398578063e30c3978146103c8578063f2fde38b146103e65761014d565b806370a08231146102a6578063715018a6146102d657806379ba5097146102e057806379cc6790146102ea5780638456cb59146103065780638da5cb5b146103105761014d565b80633be58994116101155780633be589941461020c5780633f4ba83a1461022a57806340c10f1914610234578063425d512a1461025057806342966c681461026c5780635c975abb146102885761014d565b806306fdde0314610152578063095ea7b31461017057806318160ddd146101a057806323b872dd146101be578063313ce567146101ee575b600080fd5b61015a610402565b6040516101679190611924565b60405180910390f35b61018a600480360381019061018591906119df565b6104a3565b6040516101979190611a3a565b60405180910390f35b6101a86104c6565b6040516101b59190611a64565b60405180910390f35b6101d860048036038101906101d39190611a7f565b6104de565b6040516101e59190611a3a565b60405180910390f35b6101f661050d565b6040516102039190611aee565b60405180910390f35b610214610516565b6040516102219190611b18565b60405180910390f35b61023261053f565b005b61024e600480360381019061024991906119df565b610551565b005b61026a60048036038101906102659190611b33565b61063a565b005b61028660048036038101906102819190611b60565b610686565b005b61029061069a565b60405161029d9190611a3a565b60405180910390f35b6102c060048036038101906102bb9190611b33565b6106b0565b6040516102cd9190611a64565b60405180910390f35b6102de610707565b005b6102e861071b565b005b61030460048036038101906102ff91906119df565b6107aa565b005b61030e6107ca565b005b6103186107dc565b6040516103259190611b18565b60405180910390f35b610336610814565b6040516103439190611924565b60405180910390f35b610366600480360381019061036191906119df565b6108b5565b6040516103739190611a3a565b60405180910390f35b61039660048036038101906103919190611b33565b6108d8565b005b6103b260048036038101906103ad9190611b8d565b610a67565b6040516103bf9190611a64565b60405180910390f35b6103d0610af8565b6040516103dd9190611b18565b60405180910390f35b61040060048036038101906103fb9190611b33565b610b30565b005b6060600061040e610bec565b905080600301805461041f90611bfc565b80601f016020809104026020016040519081016040528092919081815260200182805461044b90611bfc565b80156104985780601f1061046d57610100808354040283529160200191610498565b820191906000526020600020905b81548152906001019060200180831161047b57829003601f168201915b505050505091505090565b6000806104ae610c14565b90506104bb818585610c1c565b600191505092915050565b6000806104d1610bec565b9050806002015491505090565b6000806104e9610c14565b90506104f6858285610c2e565b610501858585610cc2565b60019150509392505050565b60006012905090565b60008060019054906101000a900473ffffffffffffffffffffffffffffffffffffffff16905090565b610547610db6565b61054f610e3d565b565b610559610c14565b73ffffffffffffffffffffffffffffffffffffffff166105776107dc565b73ffffffffffffffffffffffffffffffffffffffff1614806105ed575061059c610c14565b73ffffffffffffffffffffffffffffffffffffffff16600060019054906101000a900473ffffffffffffffffffffffffffffffffffffffff1673ffffffffffffffffffffffffffffffffffffffff16145b61062c576040517f08c379a000000000000000000000000000000000000000000000000000000000815260040161062390611c9f565b60405180910390fd5b6106368282610e9f565b5050565b610642610db6565b80600060016101000a81548173ffffffffffffffffffffffffffffffffffffffff021916908373ffffffffffffffffffffffffffffffffffffffff16021790555050565b610697610691610c14565b82610f21565b50565b60008060009054906101000a900460ff16905090565b6000806106bb610bec565b90508060000160008473ffffffffffffffffffffffffffffffffffffffff1673ffffffffffffffffffffffffffffffffffffffff16815260200190815260200160002054915050919050565b61070f610db6565b6107196000610fa3565b565b6000610725610c14565b90508073ffffffffffffffffffffffffffffffffffffffff16610746610af8565b73ffffffffffffffffffffffffffffffffffffffff161461079e57806040517f118cdaa70000000000000000000000000000000000000000000000000000000081526004016107959190611b18565b60405180910390fd5b6107a781610fa3565b50565b6107bc826107b6610c14565b83610c2e565b6107c68282610f21565b5050565b6107d2610db6565b6107da610fe3565b565b6000806107e7611045565b90508060000160009054906101000a900473ffffffffffffffffffffffffffffffffffffffff1691505090565b60606000610820610bec565b905080600401805461083190611bfc565b80601f016020809104026020016040519081016040528092919081815260200182805461085d90611bfc565b80156108aa5780601f1061087f576101008083540402835291602001916108aa565b820191906000526020600020905b81548152906001019060200180831161088d57829003601f168201915b505050505091505090565b6000806108c0610c14565b90506108cd818585610cc2565b600191505092915050565b60006108e261106d565b905060008160000160089054906101000a900460ff1615905060008260000160009054906101000a900467ffffffffffffffff1690506000808267ffffffffffffffff161480156109305750825b9050600060018367ffffffffffffffff16148015610965575060003073ffffffffffffffffffffffffffffffffffffffff163b145b905081158015610973575080155b156109aa576040517ff92ee8a900000000000000000000000000000000000000000000000000000000815260040160405180910390fd5b60018560000160006101000a81548167ffffffffffffffff021916908367ffffffffffffffff16021790555083156109fa5760018560000160086101000a81548160ff0219169083151502179055505b610a0386611095565b8315610a5f5760008560000160086101000a81548160ff0219169083151502179055507fc7f505b2f371ae2175ee4913f4499e1f2633a7b5936321eed1cdaeb6115181d26001604051610a569190611d18565b60405180910390a15b505050505050565b60008060019054906101000a900473ffffffffffffffffffffffffffffffffffffffff1673ffffffffffffffffffffffffffffffffffffffff168273ffffffffffffffffffffffffffffffffffffffff1603610ae5577fffffffffffffffffffffffffffffffffffffffffffffffffffffffffffffffff9050610af2565b610aef8383611125565b90505b92915050565b600080610b036111ba565b90508060000160009054906101000a900473ffffffffffffffffffffffffffffffffffffffff1691505090565b610b38610db6565b6000610b426111ba565b9050818160000160006101000a81548173ffffffffffffffffffffffffffffffffffffffff021916908373ffffffffffffffffffffffffffffffffffffffff1602179055508173ffffffffffffffffffffffffffffffffffffffff16610ba66107dc565b73ffffffffffffffffffffffffffffffffffffffff167f38d16b8cac22d99fc7c124b9cd0de2d3fa1faef420bfe791d8c362d765e2270060405160405180910390a35050565b60007f52c63247e1f47db19d5ce0460030c497f067ca4cebf71ba98eeadabe20bace00905090565b600033905090565b610c2983838360016111e2565b505050565b6000610c3a8484610a67565b90507fffffffffffffffffffffffffffffffffffffffffffffffffffffffffffffffff8114610cbc5781811015610cac578281836040517ffb8f41b2000000000000000000000000000000000000000000000000000000008152600401610ca393929190611d33565b60405180910390fd5b610cbb848484840360006111e2565b5b50505050565b600073ffffffffffffffffffffffffffffffffffffffff168373ffffffffffffffffffffffffffffffffffffffff1603610d345760006040517f96c6fd1e000000000000000000000000000000000000000000000000000000008152600401610d2b9190611b18565b60405180910390fd5b600073ffffffffffffffffffffffffffffffffffffffff168273ffffffffffffffffffffffffffffffffffffffff1603610da65760006040517fec442f05000000000000000000000000000000000000000000000000000000008152600401610d9d9190611b18565b60405180910390fd5b610db18383836113c8565b505050565b610dbe610c14565b73ffffffffffffffffffffffffffffffffffffffff16610ddc6107dc565b73ffffffffffffffffffffffffffffffffffffffff1614610e3b57610dff610c14565b6040517f118cdaa7000000000000000000000000000000000000000000000000000000008152600401610e329190611b18565b60405180910390fd5b565b610e45611607565b60008060006101000a81548160ff0219169083151502179055507f5db9ee0a495bf2e6ff9c91a7834c1ba4fdd244a5e8aa4e537bd38aeae4b073aa610e88610c14565b604051610e959190611b18565b60405180910390a1565b600073ffffffffffffffffffffffffffffffffffffffff168273ffffffffffffffffffffffffffffffffffffffff1603610f115760006040517fec442f05000000000000000000000000000000000000000000000000000000008152600401610f089190611b18565b60405180910390fd5b610f1d600083836113c8565b5050565b600073ffffffffffffffffffffffffffffffffffffffff168273ffffffffffffffffffffffffffffffffffffffff1603610f935760006040517f96c6fd1e000000000000000000000000000000000000000000000000000000008152600401610f8a9190611b18565b60405180910390fd5b610f9f826000836113c8565b5050565b6000610fad6111ba565b90508060000160006101000a81549073ffffffffffffffffffffffffffffffffffffffff0219169055610fdf82611650565b5050565b610feb611727565b60016000806101000a81548160ff0219169083151502179055507f62e78cea01bee320cd4e420270b5ea74000d11b0c9f74754ebdbfc544b05a25861102e610c14565b60405161103b9190611b18565b60405180910390a1565b60007f9016d09d72d40fdae2fd8ceac6b6234c7706214fd39c1cd1e609a0528c199300905090565b60007ff0c57e16840df040f15088dc2f81fe391c3923bec73e23a9662efc9c229c6a00905090565b61109d611771565b6111116040518060400160405280601981526020017f547261646974696f6e616c20447265616d20466163746f7279000000000000008152506040518060400160405280600381526020017f54444600000000000000000000000000000000000000000000000000000000008152506117b1565b61111a816117c7565b61112261182d565b50565b600080611130610bec565b90508060010160008573ffffffffffffffffffffffffffffffffffffffff1673ffffffffffffffffffffffffffffffffffffffff16815260200190815260200160002060008473ffffffffffffffffffffffffffffffffffffffff1673ffffffffffffffffffffffffffffffffffffffff1681526020019081526020016000205491505092915050565b60007f237e158222e3e6968b72b9db0d8043aacf074ad9f650f0d1606b4d82ee432c00905090565b60006111ec610bec565b9050600073ffffffffffffffffffffffffffffffffffffffff168573ffffffffffffffffffffffffffffffffffffffff16036112605760006040517fe602df050000000000000000000000000000000000000000000000000000000081526004016112579190611b18565b60405180910390fd5b600073ffffffffffffffffffffffffffffffffffffffff168473ffffffffffffffffffffffffffffffffffffffff16036112d25760006040517f94280d620000000000000000000000000000000000000000000000000000000081526004016112c99190611b18565b60405180910390fd5b828160010160008773ffffffffffffffffffffffffffffffffffffffff1673ffffffffffffffffffffffffffffffffffffffff16815260200190815260200160002060008673ffffffffffffffffffffffffffffffffffffffff1673ffffffffffffffffffffffffffffffffffffffff1681526020019081526020016000208190555081156113c1578373ffffffffffffffffffffffffffffffffffffffff168573ffffffffffffffffffffffffffffffffffffffff167f8c5be1e5ebec7d5bd14f71427d1e84f3dd0314c0f7b2291e5b200ac8c7c3b925856040516113b89190611a64565b60405180910390a35b5050505050565b60006113d2610bec565b9050600073ffffffffffffffffffffffffffffffffffffffff168473ffffffffffffffffffffffffffffffffffffffff1603611428578181600201600082825461141c9190611d99565b92505081905550611501565b60008160000160008673ffffffffffffffffffffffffffffffffffffffff1673ffffffffffffffffffffffffffffffffffffffff168152602001908152602001600020549050828110156114b7578481846040517fe450d38c0000000000000000000000000000000000000000000000000000000081526004016114ae93929190611d33565b60405180910390fd5b8281038260000160008773ffffffffffffffffffffffffffffffffffffffff1673ffffffffffffffffffffffffffffffffffffffff16815260200190815260200160002081905550505b600073ffffffffffffffffffffffffffffffffffffffff168373ffffffffffffffffffffffffffffffffffffffff160361154c5781816002016000828254039250508190555061159c565b818160000160008573ffffffffffffffffffffffffffffffffffffffff1673ffffffffffffffffffffffffffffffffffffffff168152602001908152602001600020600082825401925050819055505b8273ffffffffffffffffffffffffffffffffffffffff168473ffffffffffffffffffffffffffffffffffffffff167fddf252ad1be2c89b69c2b068fc378daa952ba7f163c4a11628f55a4df523b3ef846040516115f99190611a64565b60405180910390a350505050565b61160f61069a565b61164e576040517f08c379a000000000000000000000000000000000000000000000000000000000815260040161164590611e19565b60405180910390fd5b565b600061165a611045565b905060008160000160009054906101000a900473ffffffffffffffffffffffffffffffffffffffff169050828260000160006101000a81548173ffffffffffffffffffffffffffffffffffffffff021916908373ffffffffffffffffffffffffffffffffffffffff1602179055508273ffffffffffffffffffffffffffffffffffffffff168173ffffffffffffffffffffffffffffffffffffffff167f8be0079c531659141344cd1fd0a4f28419497f9722a3daafe3b4186f6b6457e060405160405180910390a3505050565b61172f61069a565b1561176f576040517f08c379a000000000000000000000000000000000000000000000000000000000815260040161176690611e85565b60405180910390fd5b565b611779611837565b6117af576040517fd7e6bcf800000000000000000000000000000000000000000000000000000000815260040160405180910390fd5b565b6117b9611771565b6117c38282611857565b5050565b6117cf611771565b80600060016101000a81548173ffffffffffffffffffffffffffffffffffffffff021916908373ffffffffffffffffffffffffffffffffffffffff16021790555060008060006101000a81548160ff02191690831515021790555050565b611835611771565b565b600061184161106d565b60000160089054906101000a900460ff16905090565b61185f611771565b6000611869610bec565b90508281600301908161187c9190612076565b508181600401908161188e9190612076565b50505050565b600081519050919050565b600082825260208201905092915050565b60005b838110156118ce5780820151818401526020810190506118b3565b60008484015250505050565b6000601f19601f8301169050919050565b60006118f682611894565b611900818561189f565b93506119108185602086016118b0565b611919816118da565b840191505092915050565b6000602082019050818103600083015261193e81846118eb565b905092915050565b600080fd5b600073ffffffffffffffffffffffffffffffffffffffff82169050919050565b60006119768261194b565b9050919050565b6119868161196b565b811461199157600080fd5b50565b6000813590506119a38161197d565b92915050565b6000819050919050565b6119bc816119a9565b81146119c757600080fd5b50565b6000813590506119d9816119b3565b92915050565b600080604083850312156119f6576119f5611946565b5b6000611a0485828601611994565b9250506020611a15858286016119ca565b9150509250929050565b60008115159050919050565b611a3481611a1f565b82525050565b6000602082019050611a4f6000830184611a2b565b92915050565b611a5e816119a9565b82525050565b6000602082019050611a796000830184611a55565b92915050565b600080600060608486031215611a9857611a97611946565b5b6000611aa686828701611994565b9350506020611ab786828701611994565b9250506040611ac8868287016119ca565b9150509250925092565b600060ff82169050919050565b611ae881611ad2565b82525050565b6000602082019050611b036000830184611adf565b92915050565b611b128161196b565b82525050565b6000602082019050611b2d6000830184611b09565b92915050565b600060208284031215611b4957611b48611946565b5b6000611b5784828501611994565b91505092915050565b600060208284031215611b7657611b75611946565b5b6000611b84848285016119ca565b91505092915050565b60008060408385031215611ba457611ba3611946565b5b6000611bb285828601611994565b9250506020611bc385828601611994565b9150509250929050565b7f4e487b7100000000000000000000000000000000000000000000000000000000600052602260045260246000fd5b60006002820490506001821680611c1457607f821691505b602082108103611c2757611c26611bcd565b5b50919050565b7f4f776e61626c653a2063616c6c6572206973206e6f7420746865206f776e657260008201527f206f722044414f00000000000000000000000000000000000000000000000000602082015250565b6000611c8960278361189f565b9150611c9482611c2d565b604082019050919050565b60006020820190508181036000830152611cb881611c7c565b9050919050565b6000819050919050565b600067ffffffffffffffff82169050919050565b6000819050919050565b6000611d02611cfd611cf884611cbf565b611cdd565b611cc9565b9050919050565b611d1281611ce7565b82525050565b6000602082019050611d2d6000830184611d09565b92915050565b6000606082019050611d486000830186611b09565b611d556020830185611a55565b611d626040830184611a55565b949350505050565b7f4e487b7100000000000000000000000000000000000000000000000000000000600052601160045260246000fd5b6000611da4826119a9565b9150611daf836119a9565b9250828201905080821115611dc757611dc6611d6a565b5b92915050565b7f5061757361626c653a206e6f7420706175736564000000000000000000000000600082015250565b6000611e0360148361189f565b9150611e0e82611dcd565b602082019050919050565b60006020820190508181036000830152611e3281611df6565b9050919050565b7f5061757361626c653a2070617573656400000000000000000000000000000000600082015250565b6000611e6f60108361189f565b9150611e7a82611e39565b602082019050919050565b60006020820190508181036000830152611e9e81611e62565b9050919050565b7f4e487b7100000000000000000000000000000000000000000000000000000000600052604160045260246000fd5b60008190508160005260206000209050919050565b60006020601f8301049050919050565b600082821b905092915050565b600060088302611f367fffffffffffffffffffffffffffffffffffffffffffffffffffffffffffffffff82611ef9565b611f408683611ef9565b95508019841693508086168417925050509392505050565b6000611f73611f6e611f69846119a9565b611cdd565b6119a9565b9050919050565b6000819050919050565b611f8d83611f58565b611fa1611f9982611f7a565b848454611f06565b825550505050565b600090565b611fb6611fa9565b611fc1818484611f84565b505050565b5b81811015611fe557611fda600082611fae565b600181019050611fc7565b5050565b601f82111561202a57611ffb81611ed4565b61200484611ee9565b81016020851015612013578190505b61202761201f85611ee9565b830182611fc6565b50505b505050565b600082821c905092915050565b600061204d6000198460080261202f565b1980831691505092915050565b6000612066838361203c565b9150826002028217905092915050565b61207f82611894565b67ffffffffffffffff81111561209857612097611ea5565b5b6120a28254611bfc565b6120ad828285611fe9565b600060209050601f8311600181146120e057600084156120ce578287015190505b6120d8858261205a565b865550612140565b601f1984166120ee86611ed4565b60005b82811015612116578489015182556001820191506020850194506020810190506120f1565b86831015612133578489015161212f601f89168261203c565b8355505b6001600288020188555050505b50505050505056fea2646970667358221220c6686345ef1196ad1a7206db2c2710d6338010f2655824bcfa54b678a6fcc30664736f6c63430008140033",
  "linkReferences": {},
  "deployedLinkReferences": {}
}