{
  "_format": "hh-sol-artifact-1",
  "contractName": "TokenSale",
  "sourceName": "contracts/TokenSaleContract.sol",
  "abi": [
    {
      "inputs": [
        {
          "internalType": "contract ReFiTokenSale",
          "name": "_tokenContract",
          "type": "address"
        },
        {
          "internalType": "uint256",
          "name": "_tokenPrice",
          "type": "uint256"
        },
        {
          "internalType": "uint256",
          "name": "_totalTokenSupply",
          "type": "uint256"
        }
      ],
      "stateMutability": "nonpayable",
      "type": "constructor"
    },
    {
      "anonymous": false,
      "inputs": [
        {
          "indexed": false,
          "internalType": "address",
          "name": "_buyer",
          "type": "address"
        },
        {
          "indexed": false,
          "internalType": "uint256",
          "name": "_amount",
          "type": "uint256"
        }
      ],
      "name": "Sell",
      "type": "event"
    },
    {
      "inputs": [],
      "name": "admin",
      "outputs": [
        {
          "internalType": "address payable",
          "name": "",
          "type": "address"
        }
      ],
      "stateMutability": "view",
      "type": "function"
    },
    {
      "inputs": [
        {
          "internalType": "uint256",
          "name": "_numberOfTokens",
          "type": "uint256"
        }
      ],
      "name": "buyTokens",
      "outputs": [],
      "stateMutability": "payable",
      "type": "function"
    },
    {
      "inputs": [],
      "name": "endSale",
      "outputs": [],
      "stateMutability": "nonpayable",
      "type": "function"
    },
    {
      "inputs": [],
      "name": "tokenContract",
      "outputs": [
        {
          "internalType": "contract ReFiTokenSale",
          "name": "",
          "type": "address"
        }
      ],
      "stateMutability": "view",
      "type": "function"
    },
    {
      "inputs": [],
      "name": "tokenPrice",
      "outputs": [
        {
          "internalType": "uint256",
          "name": "",
          "type": "uint256"
        }
      ],
      "stateMutability": "view",
      "type": "function"
    },
    {
      "inputs": [],
      "name": "tokensSold",
      "outputs": [
        {
          "internalType": "uint256",
          "name": "",
          "type": "uint256"
        }
      ],
      "stateMutability": "view",
      "type": "function"
    },
    {
      "inputs": [],
      "name": "totalTokenSupply",
      "outputs": [
        {
          "internalType": "uint256",
          "name": "",
          "type": "uint256"
        }
      ],
      "stateMutability": "view",
      "type": "function"
    },
    {
      "inputs": [
        {
          "internalType": "uint256",
          "name": "_totalTokenSupply",
          "type": "uint256"
        }
      ],
      "name": "updateSupply",
      "outputs": [],
      "stateMutability": "payable",
      "type": "function"
    }
  ],
  "bytecode": "0x60806040523480156200001157600080fd5b5060405162000c8c38038062000c8c833981810160405281019062000037919062000188565b336000806101000a81548173ffffffffffffffffffffffffffffffffffffffff021916908373ffffffffffffffffffffffffffffffffffffffff16021790555082600160006101000a81548173ffffffffffffffffffffffffffffffffffffffff021916908373ffffffffffffffffffffffffffffffffffffffff1602179055508160028190555080600481905550505050620001e4565b600080fd5b600073ffffffffffffffffffffffffffffffffffffffff82169050919050565b60006200010182620000d4565b9050919050565b60006200011582620000f4565b9050919050565b620001278162000108565b81146200013357600080fd5b50565b60008151905062000147816200011c565b92915050565b6000819050919050565b62000162816200014d565b81146200016e57600080fd5b50565b600081519050620001828162000157565b92915050565b600080600060608486031215620001a457620001a3620000cf565b5b6000620001b48682870162000136565b9350506020620001c78682870162000171565b9250506040620001da8682870162000171565b9150509250925092565b610a9880620001f46000396000f3fe60806040526004361061007b5760003560e01c806355a373d61161004e57806355a373d6146101095780636bd08049146101345780637ff9b59614610150578063f851a4401461017b5761007b565b80631ca8b6cb146100805780633610724e146100ab578063380d831b146100c7578063518ab2a8146100de575b600080fd5b34801561008c57600080fd5b506100956101a6565b6040516100a291906106b8565b60405180910390f35b6100c560048036038101906100c09190610704565b6101ac565b005b3480156100d357600080fd5b506100dc6103e3565b005b3480156100ea57600080fd5b506100f3610608565b60405161010091906106b8565b60405180910390f35b34801561011557600080fd5b5061011e61060e565b60405161012b91906107b0565b60405180910390f35b61014e60048036038101906101499190610704565b610634565b005b34801561015c57600080fd5b5061016561063e565b60405161017291906106b8565b60405180910390f35b34801561018757600080fd5b50610190610644565b60405161019d91906107ec565b60405180910390f35b60045481565b6101b881600254610668565b34146101c357600080fd5b80600160009054906101000a900473ffffffffffffffffffffffffffffffffffffffff1673ffffffffffffffffffffffffffffffffffffffff166370a08231306040518263ffffffff1660e01b815260040161021f9190610828565b602060405180830381865afa15801561023c573d6000803e3d6000fd5b505050506040513d601f19601f820116820180604052508101906102609190610858565b101561026b57600080fd5b600160009054906101000a900473ffffffffffffffffffffffffffffffffffffffff1673ffffffffffffffffffffffffffffffffffffffff1663a9059cbb33670de0b6b3a7640000846102be91906108b4565b6040518363ffffffff1660e01b81526004016102db9291906108f6565b6020604051808303816000875af11580156102fa573d6000803e3d6000fd5b505050506040513d601f19601f8201168201806040525081019061031e9190610957565b61032757600080fd5b80600360008282546103399190610984565b9250508190555060008054906101000a900473ffffffffffffffffffffffffffffffffffffffff1673ffffffffffffffffffffffffffffffffffffffff166108fc349081150290604051600060405180830381858888f193505050501580156103a6573d6000803e3d6000fd5b507f5e5e995ce3133561afceaa51a9a154d5db228cd7525d34df5185582c18d3df0933826040516103d89291906108f6565b60405180910390a150565b60008054906101000a900473ffffffffffffffffffffffffffffffffffffffff1673ffffffffffffffffffffffffffffffffffffffff163373ffffffffffffffffffffffffffffffffffffffff161461043b57600080fd5b600160009054906101000a900473ffffffffffffffffffffffffffffffffffffffff1673ffffffffffffffffffffffffffffffffffffffff1663a9059cbb60008054906101000a900473ffffffffffffffffffffffffffffffffffffffff16600160009054906101000a900473ffffffffffffffffffffffffffffffffffffffff1673ffffffffffffffffffffffffffffffffffffffff166370a08231306040518263ffffffff1660e01b81526004016104f59190610828565b602060405180830381865afa158015610512573d6000803e3d6000fd5b505050506040513d601f19601f820116820180604052508101906105369190610858565b6040518363ffffffff1660e01b81526004016105539291906109d9565b6020604051808303816000875af1158015610572573d6000803e3d6000fd5b505050506040513d601f19601f820116820180604052508101906105969190610957565b61059f57600080fd5b60008054906101000a900473ffffffffffffffffffffffffffffffffffffffff1673ffffffffffffffffffffffffffffffffffffffff166108fc479081150290604051600060405180830381858888f19350505050158015610605573d6000803e3d6000fd5b50565b60035481565b600160009054906101000a900473ffffffffffffffffffffffffffffffffffffffff1681565b8060048190555050565b60025481565b60008054906101000a900473ffffffffffffffffffffffffffffffffffffffff1681565b60008082148061069057508282838561068191906108b4565b92508261068e9190610a31565b145b61069957600080fd5b92915050565b6000819050919050565b6106b28161069f565b82525050565b60006020820190506106cd60008301846106a9565b92915050565b600080fd5b6106e18161069f565b81146106ec57600080fd5b50565b6000813590506106fe816106d8565b92915050565b60006020828403121561071a576107196106d3565b5b6000610728848285016106ef565b91505092915050565b600073ffffffffffffffffffffffffffffffffffffffff82169050919050565b6000819050919050565b600061077661077161076c84610731565b610751565b610731565b9050919050565b60006107888261075b565b9050919050565b600061079a8261077d565b9050919050565b6107aa8161078f565b82525050565b60006020820190506107c560008301846107a1565b92915050565b60006107d682610731565b9050919050565b6107e6816107cb565b82525050565b600060208201905061080160008301846107dd565b92915050565b600061081282610731565b9050919050565b61082281610807565b82525050565b600060208201905061083d6000830184610819565b92915050565b600081519050610852816106d8565b92915050565b60006020828403121561086e5761086d6106d3565b5b600061087c84828501610843565b91505092915050565b7f4e487b7100000000000000000000000000000000000000000000000000000000600052601160045260246000fd5b60006108bf8261069f565b91506108ca8361069f565b92508282026108d88161069f565b915082820484148315176108ef576108ee610885565b5b5092915050565b600060408201905061090b6000830185610819565b61091860208301846106a9565b9392505050565b60008115159050919050565b6109348161091f565b811461093f57600080fd5b50565b6000815190506109518161092b565b92915050565b60006020828403121561096d5761096c6106d3565b5b600061097b84828501610942565b91505092915050565b600061098f8261069f565b915061099a8361069f565b92508282019050808211156109b2576109b1610885565b5b92915050565b60006109c38261077d565b9050919050565b6109d3816109b8565b82525050565b60006040820190506109ee60008301856109ca565b6109fb60208301846106a9565b9392505050565b7f4e487b7100000000000000000000000000000000000000000000000000000000600052601260045260246000fd5b6000610a3c8261069f565b9150610a478361069f565b925082610a5757610a56610a02565b5b82820490509291505056fea26469706673582212204d71a3864153b1c9cfa593c6ebeb059517b8990df55f7d530c6b98187664cb4264736f6c63430008140033",
  "linkReferences": {},
  "deployedLinkReferences": {}
}