{
  "_format": "hh-sol-artifact-1",
  "contractName": "TokenSale",
  "sourceName": "contracts/TokenSaleContract.sol",
  "abi": [
    {
      "inputs": [
        {
          "internalType": "contract ReFiTokenSale",
          "name": "_tokenContract",
          "type": "address"
        },
        {
          "internalType": "uint256",
          "name": "_tokenPrice",
          "type": "uint256"
        },
        {
          "internalType": "uint256",
          "name": "_totalTokenSupply",
          "type": "uint256"
        }
      ],
      "stateMutability": "nonpayable",
      "type": "constructor"
    },
    {
      "anonymous": false,
      "inputs": [
        {
          "indexed": false,
          "internalType": "address",
          "name": "_buyer",
          "type": "address"
        },
        {
          "indexed": false,
          "internalType": "uint256",
          "name": "_amount",
          "type": "uint256"
        }
      ],
      "name": "Sell",
      "type": "event"
    },
    {
      "inputs": [],
      "name": "admin",
      "outputs": [
        {
          "internalType": "address payable",
          "name": "",
          "type": "address"
        }
      ],
      "stateMutability": "view",
      "type": "function"
    },
    {
      "inputs": [
        {
          "internalType": "uint256",
          "name": "_numberOfTokens",
          "type": "uint256"
        }
      ],
      "name": "buyTokens",
      "outputs": [],
      "stateMutability": "payable",
      "type": "function"
    },
    {
      "inputs": [],
      "name": "endSale",
      "outputs": [],
      "stateMutability": "nonpayable",
      "type": "function"
    },
    {
      "inputs": [],
      "name": "tokenContract",
      "outputs": [
        {
          "internalType": "contract ReFiTokenSale",
          "name": "",
          "type": "address"
        }
      ],
      "stateMutability": "view",
      "type": "function"
    },
    {
      "inputs": [],
      "name": "tokenPrice",
      "outputs": [
        {
          "internalType": "uint256",
          "name": "",
          "type": "uint256"
        }
      ],
      "stateMutability": "view",
      "type": "function"
    },
    {
      "inputs": [],
      "name": "tokensSold",
      "outputs": [
        {
          "internalType": "uint256",
          "name": "",
          "type": "uint256"
        }
      ],
      "stateMutability": "view",
      "type": "function"
    },
    {
      "inputs": [],
      "name": "totalTokenSupply",
      "outputs": [
        {
          "internalType": "uint256",
          "name": "",
          "type": "uint256"
        }
      ],
      "stateMutability": "view",
      "type": "function"
    },
    {
      "inputs": [
        {
          "internalType": "uint256",
          "name": "_totalTokenSupply",
          "type": "uint256"
        }
      ],
      "name": "updateSupply",
      "outputs": [],
      "stateMutability": "payable",
      "type": "function"
    }
  ],
  "bytecode": "0x60806040523480156200001157600080fd5b5060405162000cde38038062000cde8339818101604052810190620000379190620000fd565b336000806101000a81548173ffffffffffffffffffffffffffffffffffffffff021916908373ffffffffffffffffffffffffffffffffffffffff16021790555082600160006101000a81548173ffffffffffffffffffffffffffffffffffffffff021916908373ffffffffffffffffffffffffffffffffffffffff1602179055508160028190555080600481905550505050620001d9565b600081519050620000e081620001a5565b92915050565b600081519050620000f781620001bf565b92915050565b6000806000606084860312156200011357600080fd5b60006200012386828701620000cf565b93505060206200013686828701620000e6565b92505060406200014986828701620000e6565b9150509250925092565b600062000160826200017b565b9050919050565b6000620001748262000153565b9050919050565b600073ffffffffffffffffffffffffffffffffffffffff82169050919050565b6000819050919050565b620001b08162000167565b8114620001bc57600080fd5b50565b620001ca816200019b565b8114620001d657600080fd5b50565b610af580620001e96000396000f3fe60806040526004361061007b5760003560e01c806355a373d61161004e57806355a373d6146101095780636bd08049146101345780637ff9b59614610150578063f851a4401461017b5761007b565b80631ca8b6cb146100805780633610724e146100ab578063380d831b146100c7578063518ab2a8146100de575b600080fd5b34801561008c57600080fd5b506100956101a6565b6040516100a29190610883565b60405180910390f35b6100c560048036038101906100c09190610743565b6101ac565b005b3480156100d357600080fd5b506100dc610401565b005b3480156100ea57600080fd5b506100f3610644565b6040516101009190610883565b60405180910390f35b34801561011557600080fd5b5061011e61064a565b60405161012b9190610868565b60405180910390f35b61014e60048036038101906101499190610743565b610670565b005b34801561015c57600080fd5b5061016561067a565b6040516101729190610883565b60405180910390f35b34801561018757600080fd5b50610190610680565b60405161019d91906107fb565b60405180910390f35b60045481565b6101b8816002546106a4565b34146101c357600080fd5b80600160009054906101000a900473ffffffffffffffffffffffffffffffffffffffff1673ffffffffffffffffffffffffffffffffffffffff166370a08231306040518263ffffffff1660e01b815260040161021f91906107e0565b60206040518083038186803b15801561023757600080fd5b505afa15801561024b573d6000803e3d6000fd5b505050506040513d601f19601f8201168201806040525081019061026f919061076c565b101561027a57600080fd5b600160009054906101000a900473ffffffffffffffffffffffffffffffffffffffff1673ffffffffffffffffffffffffffffffffffffffff1663a9059cbb33670de0b6b3a7640000846102cd9190610925565b6040518363ffffffff1660e01b81526004016102ea92919061083f565b602060405180830381600087803b15801561030457600080fd5b505af1158015610318573d6000803e3d6000fd5b505050506040513d601f19601f8201168201806040525081019061033c919061071a565b61034557600080fd5b8060036000828254610357919061089e565b9250508190555060008054906101000a900473ffffffffffffffffffffffffffffffffffffffff1673ffffffffffffffffffffffffffffffffffffffff166108fc349081150290604051600060405180830381858888f193505050501580156103c4573d6000803e3d6000fd5b507f5e5e995ce3133561afceaa51a9a154d5db228cd7525d34df5185582c18d3df0933826040516103f692919061083f565b60405180910390a150565b60008054906101000a900473ffffffffffffffffffffffffffffffffffffffff1673ffffffffffffffffffffffffffffffffffffffff163373ffffffffffffffffffffffffffffffffffffffff161461045957600080fd5b600160009054906101000a900473ffffffffffffffffffffffffffffffffffffffff1673ffffffffffffffffffffffffffffffffffffffff1663a9059cbb60008054906101000a900473ffffffffffffffffffffffffffffffffffffffff16600160009054906101000a900473ffffffffffffffffffffffffffffffffffffffff1673ffffffffffffffffffffffffffffffffffffffff166370a08231306040518263ffffffff1660e01b815260040161051391906107e0565b60206040518083038186803b15801561052b57600080fd5b505afa15801561053f573d6000803e3d6000fd5b505050506040513d601f19601f82011682018060405250810190610563919061076c565b6040518363ffffffff1660e01b8152600401610580929190610816565b602060405180830381600087803b15801561059a57600080fd5b505af11580156105ae573d6000803e3d6000fd5b505050506040513d601f19601f820116820180604052508101906105d2919061071a565b6105db57600080fd5b60008054906101000a900473ffffffffffffffffffffffffffffffffffffffff1673ffffffffffffffffffffffffffffffffffffffff166108fc479081150290604051600060405180830381858888f19350505050158015610641573d6000803e3d6000fd5b50565b60035481565b600160009054906101000a900473ffffffffffffffffffffffffffffffffffffffff1681565b8060048190555050565b60025481565b60008054906101000a900473ffffffffffffffffffffffffffffffffffffffff1681565b6000808214806106cc5750828283856106bd9190610925565b9250826106ca91906108f4565b145b6106d557600080fd5b92915050565b6000815190506106ea81610a91565b92915050565b6000813590506106ff81610aa8565b92915050565b60008151905061071481610aa8565b92915050565b60006020828403121561072c57600080fd5b600061073a848285016106db565b91505092915050565b60006020828403121561075557600080fd5b6000610763848285016106f0565b91505092915050565b60006020828403121561077e57600080fd5b600061078c84828501610705565b91505092915050565b61079e816109d9565b82525050565b6107ad81610991565b82525050565b6107bc8161097f565b82525050565b6107cb816109eb565b82525050565b6107da816109cf565b82525050565b60006020820190506107f560008301846107b3565b92915050565b600060208201905061081060008301846107a4565b92915050565b600060408201905061082b6000830185610795565b61083860208301846107d1565b9392505050565b600060408201905061085460008301856107b3565b61086160208301846107d1565b9392505050565b600060208201905061087d60008301846107c2565b92915050565b600060208201905061089860008301846107d1565b92915050565b60006108a9826109cf565b91506108b4836109cf565b9250827fffffffffffffffffffffffffffffffffffffffffffffffffffffffffffffffff038211156108e9576108e8610a33565b5b828201905092915050565b60006108ff826109cf565b915061090a836109cf565b92508261091a57610919610a62565b5b828204905092915050565b6000610930826109cf565b915061093b836109cf565b9250817fffffffffffffffffffffffffffffffffffffffffffffffffffffffffffffffff048311821515161561097457610973610a33565b5b828202905092915050565b600061098a826109af565b9050919050565b600061099c826109af565b9050919050565b60008115159050919050565b600073ffffffffffffffffffffffffffffffffffffffff82169050919050565b6000819050919050565b60006109e482610a0f565b9050919050565b60006109f6826109fd565b9050919050565b6000610a08826109af565b9050919050565b6000610a1a82610a21565b9050919050565b6000610a2c826109af565b9050919050565b7f4e487b7100000000000000000000000000000000000000000000000000000000600052601160045260246000fd5b7f4e487b7100000000000000000000000000000000000000000000000000000000600052601260045260246000fd5b610a9a816109a3565b8114610aa557600080fd5b50565b610ab1816109cf565b8114610abc57600080fd5b5056fea2646970667358221220b67b56f4eb579e2098dee164cdc673aa40591b6f81ff8fb8907904406bc1a7b864736f6c63430008000033",
  "linkReferences": {},
  "deployedLinkReferences": {}
}